{
  "contractName": "Events",
  "abi": [
    {
      "anonymous": false,
      "inputs": [
        {
          "indexed": false,
          "internalType": "uint256",
          "name": "date",
          "type": "uint256"
        },
        {
          "indexed": false,
          "internalType": "string",
          "name": "val",
          "type": "string"
        }
      ],
      "name": "Myevent",
      "type": "event"
    },
    {
      "inputs": [
        {
          "internalType": "string",
          "name": "val",
          "type": "string"
        }
      ],
      "name": "sendEvents",
      "outputs": [],
      "stateMutability": "nonpayable",
      "type": "function"
    }
  ],
  "bytecode": "0x608060405234801561001057600080fd5b5061016b806100206000396000f3fe608060405234801561001057600080fd5b5060043610610048576000357c010000000000000000000000000000000000000000000000000000000090048063046522521461004d575b600080fd5b6100c46004803603602081101561006357600080fd5b810190808035906020019064010000000081111561008057600080fd5b82018360208201111561009257600080fd5b803590602001918460018302840111640100000000831117156100b457600080fd5b90919293919293905050506100c6565b005b7f9e654f610c90e2771362448dcbfdc288bae1a06e649e35369f010d0ae3b8498c42838360405180848152602001806020018281038252848482818152602001925080828437600081840152601f19601f82011690508083019250505094505050505060405180910390a1505056fea2646970667358221220d51e235e634ad7746ed2a066591b493238874aa91893317c41a63e2ae1046ae764736f6c63430007010033",
  "immutableReferences": {},
  "source": "// SPDX-License-Identifier: MIT\r\npragma solidity 0.7.1;\r\n\r\ncontract Events{\r\n\r\n    event Myevent(\r\n        uint date,\r\n        string val\r\n    );\r\n\r\nuint id;\r\nfunction sendEvents(string calldata val) external{\r\n    emit Myevent(block.timestamp, val);\r\n}\r\n }",
  "sourcePath": "C:/Users/hp/Desktop/courses/hello_blockchain/contracts/event.sol",
  "compiler": {
    "name": "solc",
    "version": "0.7.1+commit.f4a555be.Emscripten.clang"
  },
  "schemaVersion": "3.4.1",
  "updatedAt": "2021-07-12T12:40:21.189Z",
  "networkType": "ethereum",
  "devdoc": {
    "kind": "dev",
    "methods": {},
    "version": 1
  },
  "userdoc": {
    "kind": "user",
    "methods": {},
    "version": 1
  }
}