{
  "contractName": "Transfer",
  "abi": [
    {
      "stateMutability": "payable",
      "type": "fallback",
      "payable": true
    },
    {
      "inputs": [],
      "name": "funcCalled",
      "outputs": [
        {
          "internalType": "string",
          "name": "",
          "type": "string"
        }
      ],
      "stateMutability": "view",
      "type": "function",
      "constant": true
    },
    {
      "inputs": [],
      "name": "sendEther",
      "outputs": [],
      "stateMutability": "payable",
      "type": "function",
      "payable": true
    }
  ],
  "bytecode": "0x60806040526040518060400160405280600281526020017f31300000000000000000000000000000000000000000000000000000000000008152506000908051906020019061004f929190610062565b5034801561005c57600080fd5b506100ff565b828054600181600116156101000203166002900490600052602060002090601f016020900481019282601f106100a357805160ff19168380011785556100d1565b828001600101855582156100d1579182015b828111156100d05782518255916020019190600101906100b5565b5b5090506100de91906100e2565b5090565b5b808211156100fb5760008160009055506001016100e3565b5090565b6102f28061010e6000396000f3fe60806040526004361061004a576000357c0100000000000000000000000000000000000000000000000000000000900480630e29df2214610099578063637b887b146100a35761004b565b5b6040518060400160405280600181526020017f31000000000000000000000000000000000000000000000000000000000000008152506000908051906020019061009692919061021f565b50005b6100a1610133565b005b3480156100af57600080fd5b506100b8610181565b6040518080602001828103825283818151815260200191508051906020019080838360005b838110156100f85780820151818401526020810190506100dd565b50505050905090810190601f1680156101255780820380516001836020036101000a031916815260200191505b509250505060405180910390f35b6040518060400160405280600281526020017f31350000000000000000000000000000000000000000000000000000000000008152506000908051906020019061017e92919061021f565b50565b60008054600181600116156101000203166002900480601f0160208091040260200160405190810160405280929190818152602001828054600181600116156101000203166002900480156102175780601f106101ec57610100808354040283529160200191610217565b820191906000526020600020905b8154815290600101906020018083116101fa57829003601f168201915b505050505081565b828054600181600116156101000203166002900490600052602060002090601f016020900481019282601f1061026057805160ff191683800117855561028e565b8280016001018555821561028e579182015b8281111561028d578251825591602001919060010190610272565b5b50905061029b919061029f565b5090565b5b808211156102b85760008160009055506001016102a0565b509056fea2646970667358221220c06185623a0d9a9c2adb9ec72ccb9a4f32dda04337f7e5d687af9be2f1ffc5dd64736f6c63430007010033",
  "immutableReferences": {},
  "source": "// SPDX-License-Identifier: MIT\r\npragma solidity 0.7.1;\r\n\r\ncontract Transfer{\r\n   string public funcCalled = \"10\";\r\n\r\n    function sendEther() external payable{\r\n         funcCalled=\"15\";\r\n    }\r\n\r\n    fallback() external payable{\r\n         funcCalled=\"1\";\r\n    }\r\n}\r\n",
  "sourcePath": "C:/Users/hp/Desktop/courses/hello_blockchain/contracts/transfer.sol",
  "compiler": {
    "name": "solc",
    "version": "0.7.1+commit.f4a555be.Emscripten.clang"
  },
  "schemaVersion": "3.4.1",
  "updatedAt": "2021-07-09T17:07:32.801Z",
  "networkType": "ethereum",
  "devdoc": {
    "kind": "dev",
    "methods": {},
    "version": 1
  },
  "userdoc": {
    "kind": "user",
    "methods": {},
    "version": 1
  }
}